:020000040800F2
:10000000B055002091020008E1710008A9680008BD
:10001000DD71000821210008BDB8000800000000C3
:1000200000000000000000000000000069900008CF
:10003000C122000800000000F17100086D90000866
:10004000AB020008AB020008AB020008AB020008DC
:10005000AB020008AB020008AB020008AB020008CC
:10006000C5220008CD220008AB020008AB02000840
:10007000AB020008AB020008AB020008AB020008AC
:10008000E1210008AB0200086D200008000000001C
:10009000000000000000000000000000D522000861
:1000A000AB0200084591000839910008AB02000836
:1000B000AB020008AB020008AB020008AB0200086C
:1000C000AB020008AB020008AB020008AB0200085C
:1000D000AB020008319600083D96000800000000C1
:1000E000AB020008AB020008AB02000800000000F1
:1000F000000000000000000000000000AB0200084B
:1001000000000000AB020008AB020008AB020008D0
:1001100000000000000000000000000000000000DF
:10012000ED210008AB020008F9210008AB0200082D
:10013000AB0200080000000000000000000000000A
:10014000000000000000000000000000E571000851
:10015000AB020008AB020008AB020008AB020008CB
:10016000AB020008AB020008000000000000000025
:10017000000000000000000000000000000000007F
:1001800000000000AB0200080000000000000000BA
:10019000AB020008AB02000800F002F800F068F8BB
:1001A0000AA090E8000C82448344AAF10107DA45D2
:1001B00001D100F05DF8AFF2090EBAE80F0013F0BC
:1001C000010F18BFFB1A43F001031847F4060100A2
:1001D000140701000A4410F8014B14F00F0508BF82
:1001E00010F8015B240908BF10F8014B6D1E05D003
:1001F00010F8013B6D1E01F8013BF9D1641E03D0DC
:10020000641E01F8015BFBD19142E4D3704700000A
:100210000023002400250026103A28BF78C1FBD80F
:10022000520728BF30C148BF0B60704766290FF0E6
:10023000E185642900F03A81632900F08286732900
:1002400000F08786002070471FB50FF0BEFD01F05B
:1002500049F90400002000210EF082FF401C60607C
:10026000002000210EF066FFE0601FBD10B510BD3C
:1002700001F00FFC1146FFF7E7FF0DF0B7FC01F0AE
:100280005FFE03B4FFF7F2FF03BC01F0A3FE000022
:100290000948804709480047FEE7FEE7FEE7FEE71A
:1002A000FEE7FEE7FEE7FEE7FEE7FEE70448054956
:1002B000054A064B70470000259100089901000887
:1002C000B0350020B0550020B0450020B0450020DA
:1002D00053EA020C00F069802DE9F04B4FF0000664
:1002E000002B1FBFB3FA83F503FA05F424FA05F6D1
:1002F0005E4012BF1643B2FA82F502FA05F4C5F168
:1003000020051EBF22FA05FC44EA0C04203556EAFB
:10031000044C4FEA144418BF641C4FF000084FF01F
:100320000009904271EB030C39D3002919BFB1FACF
:1003300081F701FA07F6B0FA80F700FA07F6C7F17D
:1003400020071EBF20FA07FC46EA0C062037B6FB42
:10035000F4FCA7EB0507103F07F01F0BCBF12006BD
:100360002CFA06F60CFA0BFB44BFB3460026202FEE
:10037000A4BF5E464FF0000B5BEA060C08BF4FF0CF
:10038000010B19EB0B0948EB0608ABFB027C06FBE3
:1003900002CC0BFB03CCC01B71EB0C01C1E70B467D
:1003A000024641464846BDE8F08B13B5084318BFE6
:1003B0004FF0FF300146AFF30080BDE81C407047AE
:1003C0000FB41CB5074B06AA7B44694600900598FC
:1003D00000F095FD0020694600F0A4FD1CBC5DF80E
:1003E00014FB0000590B000070B5044685690068D5
:1003F000C10601D5302600E02026C00707D070BD19
:10040000D4E9012130469047206A401C20626D1ECD
:10041000F6D570BD70B5044685690078C00707D170
:1004200070BDD4E9012120209047206A401C206241
:100430006D1EF6D570BD09684A0501D540B27047FA
:10044000C905FCD500B2704709684A0501D5C0B29C
:100450007047C905FCD580B2704770B50C4605469B
:10046000012A05D02878800600D5EA69002302E039
:10047000012305E05B1C934202D2E05C0028F9D125
:10048000A869E618C01AA861286A18442862284694
:10049000FFF7AAFF04E0D5E9012114F8010B90470A
:1004A000B442F8D32846FFF7B5FF70BD2DE9F041FF
:1004B0000646002410687529314616A510D0FFF7AE
:1004C000BAFF002802DA404213A507E031688A0724
:1004D00001D512A502E0490704D511A5012401E0C8
:1004E000FFF7B2FF00210A2206F1240709E0B0FB62
:1004F000F2FCB0FBF2F302FB1C00303078541846DB
:10050000491C0028F3D123462A463046BDE8F04175
:1005100000F088BA000000002D0000002B00000051
:10052000200000002DE9F05F894604464FF0000AE4
:10053000DFF874B1FB44C0F820A02046E16888478A
:10054000002874D0252806D0D4E901219047206ADC
:10055000401C2062F1E700265F462046E16888479C
:100560002028054607DB312D05D2781910F8200C1C
:1005700008B10643F1E7B00701D526F00406C4F838
:100580001CA00027C4F818A02A2D09D028460EF078
:1005900082FD38B304EB8708303DC8F8185019E0E5
:1005A00059F8041B204604EB87029161E1688847F3
:1005B000012F054618D1E069002820DA26F0200630
:1005C0001DE0D8F8180000EB800005EB4000303843
:1005D000C8F818002046E168884705460EF05BFD24
:1005E0000028EED1012F0AD02E2D08D12046E16837
:1005F00088477F1C0546022F46F02006C4DBA06911
:10060000002803DA404246F00106A061F00701D05D
:1006100026F010066C2D0BD0682D09D04C2D39D04A
:100620006A2D35D0742D35D07A2D33D016E038E0D0
:10063000E1682F4620468847B842054609D16C2F0D
:1006400026D04FF48060E16806432046884705467F
:1006500004E06C2F1AD04FF4807006430DB3A5F15F
:100660004100192802D8203546F400664A4629463A
:10067000204626604E46FFF7D9FD80B101280BD0F9
:10068000F61D26F0070000F1080956E74020E4E7D0
:100690008020D8E70020D6E706F104094DE7284678
:1006A00052E7206ABDE8F09FBCF900000FB400B526
:1006B0008DB010A9099000910B904FF0FF300A9077
:1006C00000200C90064878440690064878446A4614
:1006D00007900F9909A800F0D1FE0DB05DF814FB4A
:1006E000D30D0000EB0D00002DE9FF5F1D464FF01C
:1006F000FF3B91464FF000085F46D5E90146A969E6
:1007000001987F1C8847296A824688470028F6D1CD
:10071000BAF1FF3F0CD0002E24F4C06419DD60064E
:1007200014D5BAF12B0F09D0BAF12D0F0ED103E079
:10073000584604B0BDE8F09F44F48064A96901986C
:100740007F1C8847761E8246002E02DDBAF1300FEC
:1007500003D0B9F1000F26D032E0A969761E0198C6
:100760007F1C44F400748847002E824605DDBAF1F0
:10077000780F06D0BAF1580F03D0B9F1000F10D09E
:100780001EE0B9F1000F02D0B9F1100F18D1A9691C
:10079000761E01987F1C24F400748847824610203E
:1007A00002E0082000E00A20814609E0A96908FB70
:1007B0000908761E01987F1C44F40074884782461D
:1007C000002E05DD4946504600F0C7FB0028EDDA53
:1007D000E96901988847A00502D46FF00100A8E7F5
:1007E000E00725D1600613D5600502D5C8F10000E9
:1007F00000E0404629680A1D2A600968220501D5E3
:10080000087015E0220701D5088011E008600FE0AC
:100810002868011D29600068210502D580F8008044
:1008200006E0210702D5A0F8008001E0C0F80080B2
:1008300038467EE72DE9FF5F4FF0000899461446E1
:1008400046469169D2E901A7DDF838B0019888479A
:10085000054659EA0B0005D009E0A1690198761C0C
:1008600088470546216A284688470028F5D1681C34
:1008700003D05FEACA7005D015E04FF0FF3004B036
:10088000BDE8F09F2068011D2160D0F800800AE0DB
:100890005FEACA7001D108F8015BA169761C019872
:1008A0007F1E88470546002F1ADD681C18D0B9F155
:1008B000000F0DD0E81705EBD060421120F01F00AB
:1008C00059F822102A1A012090400142E0D107E095
:1008D000BBF1000FDCD12846216A88470028D7D019
:1008E000E16901988847BBF1000F07D1002E05DDB3
:1008F0005FEACA7002D1002188F80010A068B842EF
:1009000003DDBBF1000F03D017B16FF00100B6E7B4
:100910003046B4E730B505460B462A4613F8014B7E
:1009200012F8010B08B1A042F8D01CB1002802D087
:100930006D1CF1E7284630BD10B5431C02E010F8ED
:10094000011B71B18107FAD14FF0013202C88C1A34
:100950008C4314EAC211F9D0C01A0A0603D0C01E93
:1009600010BDC01A10BD0A0401D0801E10BD0902BE
:10097000FCD0401E10BD4FF000020429C0F01280D0
:1009800010F0030C00F01B80CCF1040CBCF1020F42
:1009900018BF00F8012BA8BF20F8022BA1EB0C0117
:1009A00000F00DB85FEAC17C24BF00F8012B00F80D
:1009B000012B48BF00F8012B70474FF0000200B533
:1009C000134694469646203922BFA0E80C50A0E872
:1009D0000C50B1F12001BFF4F7AF090728BFA0E820
:1009E0000C5048BF0CC05DF804EB890028BF40F8EC
:1009F000042B08BF704748BF20F8022B11F0804F2E
:100A000018BF00F8012B704770477047704710B54A
:100A100000F06CFD006810BD10B5044600F066FDE6
:100A2000046010BD2DE9F0470D46994692460446F4
:100A300000F124080168880604D5E06921F010015E
:100A4000216000E00120A84201DD471B00E00027F3
:100A5000A1697A1902EB0900081AA0612078C00682
:100A600002D42046FFF7C0FC002608E0D4E90121AB
:100A70001AF806009047206A401C761C20624E45FA
:100A8000F4DB2078C0060AD52046FFF7ADFC06E06F
:100A9000D4E9012130209047206A401C2062381E92
:100AA000A7F10107F4DC07E0D4E9012118F80500FB
:100AB0009047206A401C2062281EA5F10105F3DC46
:100AC0002046FFF7A7FC2078000602D50220BDE8EB
:100AD000F0870120FBE72DE9FF4F0C461E464FF043
:100AE000FF378BB0D2E90001DDF860800A908A46BA
:100AF000C1F30A5505B93D46002108464FF00000F4
:100B0000BAF1000F00F4400005DA00EB80004FF46A
:100B1000400101EA50004FEA9059B9F1010F00DDA0
:100B2000B9460A9850EA4A000ED044F61050A5F291
:100B3000FF3545432F14B8F1000F1ED07542291E12
:100B40001EDDC9F100021CE0B8F1010F4FF00000FA
:100B500001D0302103E0F24305E02154401CB042B3
:100B6000FBDB30460022002121540B99C1F808809C
:100B7000C1E900200FB0BDE8F08FBD1B6D1CDEE7A2
:100B80004A4600DA694206A800F010FF06AB93E877
:100B9000070003AB83E8070050460A990DF084FC78
:100BA0008DE80700A0F500501F3800900398002D35
:100BB0000ADD42F21F014A460844002303A90390BC
:100BC00068460DF02FFF09E0A0F500504A461F3897
:100BD000002303A9039068460DF04EFF8DE807003F
:100BE0000004000C03D04FF0FF30410800E0104635
:100BF000B8F1000F03D00022009215461EE0751ECA
:100C000005D400F08AFC303262556D1EF9D5B3462A
:100C10000122084302D000227F1C04E02078302803
:100C200001D100227F1E002A099784D01DE0112DDA
:100C300007DA00F072FC303262556D1C50EA010296
:100C4000F5D1084302D00098C8B10EE00021681E1B
:100C500005E0235C625C63542254401E491C8142BF
:100C6000F7DBAB46A81B401E0990002004F80B00E0
:100C70000B98099AC0F80880C0E9002B7AE7112682
:100C80004FF0000857E72DE9F04F88460446D21D83
:100C900022F0070191B0D1E90001CDE90A010EF07F
:100CA00037F802460B98C00F01D02D2007E02068CE
:100CB000810701D52B2002E0202101EAC000032A90
:100CC000099001D0072A05DB03464146204600F083
:100CD00073FC0BE12078800601D5E06900E0062076
:100CE000B8F1650F814606D0B8F1660F18D0B8F19B
:100CF000670F70D131E00020B9F1110F009001DBD6
:100D0000112301E009F101030AAA01A90CA8FFF7C8
:100D1000E2FEDDE90C70002609F10105834647E09B
:100D200001204B4600904FF000470AAA01A90CA8E9
:100D3000FFF7D1FEDDE90DB00C995D46002610B934
:100D400009F101000D18B9EB050003D4C0F1FF361D
:100D500009F10105A5EB09002BE0B9F1010F01DA5A
:100D60004FF001090020B9F1110F0090484601DD54
:100D7000112300E003460AAA01A90CA8FFF7ABFE65
:100D8000DDE90C704D4600268346207800070AD422
:100D9000AB4500DA5D4601A8012D04DD411911F8CB
:100DA000011C302907D04F4502DA17F1040F04DA8D
:100DB000012082460FE06D1EEEE7002F02DCED1BE6
:100DC0003E4403E0781CA84200DD7D1CB81B00F106
:100DD000010A4FF000472078000703D4AA4501DB41
:100DE0004FF0FF3A0021B7F1004F0DF143088DF8A5
:100DF000431024D002202B23002F01DA7F422D2321
:100E00000A21021EA0F1010000DC5FB197FBF1FC9A
:100E100097FBF1F201FB1C7C17460CF1300C08F833
:100E200001CDEEE7A8F1010003702188090501D585
:100E3000452100E06521A0F1010800F8011C099896
:100E40000FA9A1EB0807FF1D00B10120411901EB1B
:100E5000EA70A1693844081A401EA0612078C006D3
:100E600002D42046FFF7C0FA099828B1D4E901213D
:100E70009047206A401C20622078C00622D5204678
:100E8000FFF7B2FA1EE0002E04DBB34502DD01A835
:100E9000805D00E03020D4E901219047206A401CA9
:100EA0002062761CAAF101005FEA000A0AD100F074
:100EB00019FBC0680168405CD4E901219047206AB1
:100EC000401C2062281EA5F10105DCDC07E0D4E906
:100ED000012118F8010B9047206A401C2062381E3F
:100EE000A7F10107F3DC2046FFF794FA032011B0C5
:100EF00041E6000001694A1C02610878704700B5AC
:100F00008FB0CDE901310021059105497944CDE942
:100F1000031011466846FFF705FB0FB000BD000047
:100F2000E5FFFFFF0A6802F8010B0A60704710B581
:100F3000436913B1AFF3008001E0FFF78EFA01209F
:100F400010BD127800F124010A7000224A700122BB
:100F5000EDE711684FF0FF32E9E73A2800D2303868
:100F600020F02002412A01D3A2F13700884201D3A8
:100F70004FF0FF30704700002DE9FF4F06468BB061
:100F80000878FF2806D0491C2D2805D000244FF0F2
:100F9000000908E000200CE00124F8E709EB8903D0
:100FA000491C00EB43090878FF28F7D114B1C9F1B7
:100FB00000008146107800252C46AA4629462D2897
:100FC00001D02B2804D1521C2D2813D0002082469A
:100FD0008B461078FF280FD04FF0000C0A21521CCE
:100FE000A5FB017804FB018105FB0C11C5194BEB36
:100FF0000104EEE70120EAE7002108464FF0000077
:10100000BAF1000F02D000EB80004008C0F3815716
:10101000012F01DD4FF0FF370E9955EA040009EB6F
:1010200001080BD04FF0020918F5FA7F16DA4FEAE3
:10103000CA70002F706008DD012007E04FEACA7017
:10104000C6E900B00FB0BDE8F08F0020306000F0BE
:101050004DFAC0F800901821084616E0B8F5FA7F5E
:1010600018DD002F02DAF748784401E0F6487844AA
:10107000D0E90010C6E9001040EACA70706000F0C4
:1010800035FAC0F80090142108460FB0BDE8F04FC3
:101090000EF0ADBE002108464FF00000B8F100018F
:1010A000099002DAC7F1000200E03A4601DAC8F11D
:1010B000000106A800F07AFC06AB93E8070003AB3A
:1010C00083E8070044F23E005BEA040100905846C2
:1010D00004D144F21E012C465D460091210C090406
:1010E000014306D10099240444EA15442D04103923
:1010F000009104F07F41014306D10099240244EAA3
:1011000015642D020839009104F07041014306D1A5
:101110000099240144EA15742D01091F009104F07F
:101120004041014306D10099A40044EA9574AD0002
:10113000891E009104F00041084304D100986D1904
:101140006441401E00904FF001033A466846B8F1F2
:10115000000FCDE9014503A902DD0DF0A2FC01E07D
:101160000DF075FCBAF1000F04460D4601D084F075
:101170000044002108464FF00000099940F2FF7733
:10118000484010F00C0F07D124F00040284303D052
:10119000C4F30A50B84212D100F0A8F9C0F8009088
:1011A000C4F30A50B8420AD1A8487844D0E90010E4
:1011B000C6E9001004F000410843706042E7C6E948
:1011C00000543FE72DE9FF4F1F464FF0000A4FF054
:1011D000FF38454691B0D7E90146CDF83CA000F074
:1011E00081F9C0680168405C1090B96912986D1C63
:1011F0008847396A814688470028F6D1B9F1FF3F10
:101200000AD0002E24F4D06411DDB9F12B0F08D0E0
:10121000B9F12D0F0BD102E0404615B013E744F4AD
:101220008064B96912986D1C8847761E81466005F6
:1012300004A901D52D2000E02B20002E01F1010B87
:101240000DF130088DF810003FDDB9F1690F08D0BD
:10125000B9F1490F05D0B9F16E0F02D0B9F14E0FB7
:101260001CD13B4601A8009580E85002DDE912122E
:101270006FF002000EF024FEC11CCED10EE0B96961
:1012800012986D1C884781461398761E44F40074AA
:1012900005600F98401C002E0F9016DDB9F1300F3D
:1012A000EDD0B9F1780F02D0B9F1580F0DD10F98E8
:1012B00001280AD13B46CDE90054DDE91212001F96
:1012C00002960EF0FBFDC11CA7D1109989453ED1B5
:1012D00044F0800406E01399681CAAF1010A44F462
:1012E00000740860B9696D1C1298761E8847302812
:1012F0008146F0D02BE01099894505D1200603D412
:10130000761E44F0800418E048460DF0C4FE08B391
:10131000761E0DF123029345A9F1300044F40074C8
:1013200006D20BF8010B200607D5AAF1010003E055
:10133000200602D40AF101008246A00502D51399C5
:10134000681C0860B96912986D1C88478146002E98
:10135000D1DC53E0002E51DDB9F1650F02D0B9F1B7
:10136000450F4BD1A00549D5B9696D1C1298761E61
:1013700024F440748847002E81460CDD2B2804D0CD
:10138000B9F12D0F07D144F48074B96912986D1C1E
:101390008847761E8146E00501D52D2100E02B21EE
:1013A00008F8011BCDF8008021E0761E0DF139010F
:1013B000884544F400740CD2A9F1300010F0FF000D
:1013C00088F8000002D10099884509D908F1010880
:1013D00006E0E00501D51E4801E042F20F708246AA
:1013E000B96912986D1C8847814613980560002ED4
:1013F00004DD48460DF04FFE0028D6D1F969129859
:101400008847FF2053468BF8000088F80000002032
:101410000A900B9004AA0CA90AA8FFF7ADFDA0053D
:1014200002D46FF00100F8E614F0240F12D0E007A8
:101430001CD13868DDE90A12031D3B600068C0E971
:10144000001213E07CF800006EF8000032F7000094
:10145000F1D8FFFF0AA968460DF00AFEE00705D1A2
:101460003868009A011D3960006802602846D4E699
:10147000026811441378016018467047D16005492D
:101480007944516104497944116200211161114686
:1014900000F0D2B8EDFFFFFF1B010000426842B12F
:1014A000016811F8013B23B1521EC0E90012184631
:1014B00070470121C160881E704742685AB1C368F5
:1014C000016843B983688B4205D0491E521CC0E9AC
:1014D0000012002070474FF0FF30704700487047FF
:1014E00078010020004870479801002000487047AC
:1014F00078010020B2F120030AD5C2F1200301FADD
:1015000002F120FA03F341EA030100FA02F0704706
:1015100000FA03F14FF00000704730B5B0F10A0255
:1015200071F100034FEA900E4EEA817EB0EB0E009F
:1015300061EB91014FEA101E4EEA017E10EB0E00A6
:1015400041EB11114FEA102E4EEA016E10EB0E0026
:1015500041EB11214FEA104E4EEA014E10EB0E0006
:1015600041EB1141401841F100014FEAD00040EA3F
:1015700041704FEAD1014FEA810444EA907410EBC4
:10158000800544EB01046D1944EB0404521BA34194
:101590004FF0000348BF0A3200D530BD401C41F176
:1015A000000130BD10B5044600F098FA0068005DF7
:1015B00000F0010010BD00002DE9F0411F46044677
:1015C00003260168072A01F4006004DB08B116A5B0
:1015D00005E016A503E008B115A500E015A521F06A
:1015E00010002060A069C01EA0610FB1401EA06164
:1015F0002046FEF7F9FE4FB1D4E901213846904765
:10160000206A401C2062C01C206206E0206AFAE7C3
:10161000D4E9012115F8010B9047761EF8D2204637
:10162000FEF7F8FEBDE8F0814E414E006E616E009F
:10163000494E4600696E66002DE9F34F4FF0000AEF
:101640000C4656468DB001200C9001F10C000B9019
:1016500062690B9801219047051E2DD0252D2CD0B5
:10166000216A8847C0B162690B9801219047216ABD
:1016700088470028F7D16269411E0B98904700E027
:10168000761CA1690D988847216A88470028F7D100
:10169000E1690D988847DBE7A1690D988847A84262
:1016A000074601D1761CD3E7E1690D9888477F1C76
:1016B00002D1BAF1000F6FD06BE162690B9800277D
:1016C0003D46394690472A2804D162690B9801218A
:1016D00090470125DFF8D08262690B98012190477D
:1016E000A0F130010A290AD24745E5DC07EB870162
:1016F00000EB4107303FDFD445F01005ECE7E90689
:1017000001D46FF000476C280AD04C2814D0682808
:1017100015D06A280DD074281CD07A281AD01DE064
:1017200062690B98012190476C2802D045F00405AE
:1017300014E045F002050DE045F020050AE062697D
:101740000B9801219047682802D045F0080505E074
:1017500045F4006562690B9801219047C4E901577F
:1017600065283DD019DC58287AD00CDC452837D0C4
:1017700004DC252826D041289ED131E046282FD0F0
:10178000472899D12CE05B2877D0612828D063289E
:101790007CD0642823D15AE0F6E06F2848D008DCDA
:1017A00066281DD067281BD0692821D06E2816D145
:1017B00027E0702845D0732868D0752847D078284E
:1017C0000DD14DE0A1690D988847252805463FF4C5
:1017D00069AFE1690D9888476D1C3FF46AAFD8E0A6
:1017E0000D9923466A466FF001000EF065FBC5E0D7
:1017F00045F0400023464FF000026060A80736D451
:101800003EE0E8077FF447AF2068011D21600068D3
:10181000290501D506701BE7290701D5068017E7C2
:10182000A90703D5F117C0E9006111E706600FE7CA
:1018300045F0400023464FF008026060A80716D428
:101840001EE040F60E0125EA0100606016E045F05A
:10185000400023464FF00A026060A80707D40FE05B
:1018600045F040006060A80708D5234610220D9976
:101870006FF00100AFF3008080E007E01022234604
:101880000D996FF00100FEF72FFF77E04FF0000990
:1018900063284F46C8464B46CB4602D05B2806D04D
:1018A00038E0E80601D40120A060012732E0626937
:1018B000D4F80CB00B98012190475E2807D14FF067
:1018C000010949466269D4F80CB00B989047216928
:1018D00039B900210A4603AB43F82120491C0829E5
:1018E000FADBD8B3216949B308F1010862690B98A2
:1018F000012190475D28F4D1B9F1000F09D00020F3
:1019000003A951F82020D24341F82020401C082888
:10191000F7DB03AB2069002820794FEA40701ED026
:101920005B462246CDF80080CDE901970D9900284D
:101930006FF0010020DAAFF300801FE0C11703AAA7
:1019400000EBD1614B1121F01F0102EB8302411A20
:1019500013680120884003431360C7E719E00D991D
:10196000224600286FF00100009702DAAFF30080F2
:1019700004E0FEF75FFF01E0AFF3008000280ADA21
:10198000401C06D10C9820B14FF0FF300FB0BDE8DD
:10199000F08F5046FAE7E90701D10AF1010A06443F
:1019A00000200C9054E60000CCCCCC0C2DE9F04784
:1019B000814616468AB0354878440DC88DE80D003A
:1019C00032487844801C03AC0DC884E80D0041F611
:1019D0009B300844372190FBF1F290FBF1F5A5F123
:1019E000800501FB12041B3C02D56442012000E08B
:1019F0000020DFF898A080460027FA44AAF1BE0A2A
:101A00000EE0E0070AD03246684607EB47010123A3
:101A10000AEB81010DF030F88DE8070064107F1C9F
:101A2000002CEED1194F7F44AE3F19E0E80715D0E6
:101A300007EB04100DF1180A90E80E008AE80E007A
:101A4000C068F04201D1981908903246012306A9D6
:101A500003A80DF011F803AB83E807006D10641CB8
:101A6000002DE3D14FF0010332466946B8F1000F73
:101A700003A802D00CF0D6FF01E00CF0FDFFC9E98D
:101A80000001C9F808200AB0BDE8F087C8E50000E9
:101A900070477546FFF722FDAE460500694653467E
:101AA00020F00700854618B020B5FEF7FFFBBDE823
:101AB00020404FF000064FF000074FF000084FF0B5
:101AC000000BAC46ACE8C009ACE8C009ACE8C00902
:101AD000ACE8C00921F007018D46704710B5FFF74B
:101AE00001FD001D10BD00BF79D600002DE9FF4F9C
:101AF0001F464FF03C0987B04FF00042DDE914105B
:101B000001F10108DDF858A002EA405003900020DE
:101B100005908346054604460490B969461E089818
:101B20008847AAF1010A0290BAF1000F3BDD029842
:101B30002E2815D01021FFF710FA00282EDB4FF0C9
:101B4000010B0599014317D0B9F1000F0BDB4A4691
:101B5000C117FFF7CFFC05430C43A9F1040905E0C9
:101B6000012004900BE008B145F00105012005902B
:101B7000049820B9361D02E0049800B1361FB969F7
:101B8000089808F101088847BBF1000FAAF1010A83
:101B90000290C9D00999C1F80080C5E70298702861
:101BA00008D0502806D0F96908988847BBF1000F83
:101BB00014D04FE0002002900120BBF1000F0490F0
:101BC00009D0B969089808F101088847AAF1010904
:101BD000B9F1000F07DCF969089888476FF0010038
:101BE0000BB0BDE8F08F2B2804D02D280CD14FF07E
:101BF000FF300490B969089808F101088847A9F1F5
:101C00000109B9F1000FE6DD411CE4D00A21FFF71C
:101C1000A4F90028DFDB029908F1010801EB81013A
:101C200000EB41000290B969089888470A21FFF744
:101C300094F9099AA9F10109B9F1000FC2F80080DD
:101C400001DD0028E7DAF9690898884704990298C5
:101C500000FB016655EA040004D004F0404109008D
:101C600002D006E0039898E0A40044EA9574AD0021
:101C7000B61E04F00041080002D16D196441761EC1
:101C8000159810F0240F03D04FF00B095C4803E0C7
:101C90004FF028096FF07D008246564507DAAAEB1F
:101CA00006018944B9F1410F01DD4FF041090120DE
:101CB0000021A9F10102FFF71DFC024628400B4656
:101CC0002140084301D0012100E00021501E029173
:101CD00043F1FF3128402140084301D0012000E0BA
:101CE00000200299834651EA0B014FD0002108469B
:101CF0004FF00000039900F4400039B100EB800080
:101D00004FF4400100EBD07001EA6000801501281B
:101D100002DD4FF0FF3000E013D0401C36D00298B7
:101D200060B3BBF1000F0CD14A4601200021FFF740
:101D3000E1FB28402140084301D0012000E00020C1
:101D4000E0B101204A460021FFF7D4FB03464019C9
:101D50000A4661412D1A8C4111D3B9F1400F09DDBA
:101D6000159810F0240F02D0AAF1340603E0AAF16E
:101D7000170600E0761C00254FF0004406E05B1ECD
:101D800042F1FF3220EA030521EA0204CAF1010010
:101D9000B04206DA1B4903980843019000200090E6
:101DA0000EE0039AC4F3D321E80A0A43164940EA35
:101DB00044500A433146CDE9000268460DF061F90E
:101DC000159810F0240F0BD01598C00715D138685E
:101DD000DDE90012031D3B600068C0E900120CE061
:101DE00002A869460DF044F91598C00705D1386876
:101DF000029A011D3960006802604046F0E600006A
:101E000002FCFFFF0000F07F0000F03F2DE9FF4FD4
:101E100092461D4685B04FF00041DDE9124BDDE9E9
:101E200014727F1E01EA4B50414940F0FF4940EADD
:101E30000108002122F020004928049102D04E28F8
:101E400028D04CE03BA0012607C88DE80700A9690F
:101E50000698641C88477F1E014606D41DF80600BC
:101E600018B121F0200181420BD0E969069888471A
:101E7000032E34D0082E32D06FF0010009B0BDE837
:101E8000F08F761C032E01D0082EE0D1601CCAF81A
:101E90000000DCE7A9690698641C88477F1E2AD4E5
:101EA00020F02000412826D1A9690698641C8847A3
:101EB0007F1E20D420F020004E281CD1A96906984E
:101EC000641C88477F1E48F4002849F48009CAF83A
:101ED000004001D4282806D0E969069888475FEABF
:101EE000CB7012D022E0A9690698641C88477F1E37
:101EF00001D4002803DAE96906988847BCE7292855
:101F0000F1D1641CCAF80040E9E71BF0240F07D0A8
:101F100028680499031D2B600068C0E9001805E0DB
:101F20002868021D2A600068C0F800902046A5E7D6
:101F30000000F07F494E46494E49545900000000C8
:101F400010B50446AFF300802046BDE81040FEF710
:101F500098B900000000000030B44FF0013C50F888
:101F6000042B51F8043BCCFA52F4D51A20D1FCB919
:101F700050F8042B51F8043BCCFA52F4D51A17D17F
:101F8000B4B950F8042B51F8043BCCFA52F4D51AEA
:101F90000ED16CB950F8042B51F8043BCCFA52F432
:101FA000D51A05D1002CDAD030BC4FF000007047B4
:101FB00029BAB1FA81F111F01801D1F12000844061
:101FC000F2D1CA40CB4012F0FF0213F0FF0330BC45
:101FD000D01A704701491820ABBEFEE72600020068
:101FE0000146806B036C026C13F0500F08D0D206D0
:101FF00048BF00F09DBB806BC26C0846104700BF15
:1020000042F40071016401688A6812F0405F01D0F7
:1020100000F082BB027E002AFAD1CA6A12F4700F65
:1020200002D08A685205F3D44A6822F020024A603E
:10203000016C21F480710164016CC90448BF00F097
:102040006BBB016C41F00101016400F065BB000055
:10205000806B40210164416C41F00401416400F057
:1020600067BB0000806B00F061BB000042F63C5093
:10207000C2F2000000F05EBB014643F2B030C2F293
:10208000000002F075BD000080B543F2B030C2F22E
:10209000000002F07FFD043818BF012080BD000061
:1020A00080B500F00DF801281CBF012080BD43F26F
:1020B000B030C2F20000BDE8804002F081BD0000F7
:1020C00081B001208DF803009DF8030001B0704736
:1020D00080B582B09C4613460A46014643F2B030B2
:1020E000C2F20000CDF800C002F006FF002818BFC1
:1020F000012002B080BD000080B582B09C4613462E
:102100000A46014643F2B030C2F20000CDF800C0EA
:1021100003F01AF8002818BF012002B080BD0000AB
:10212000FEE7000070B5044641F62C2040F6B601EB
:10213000C2F20000C0F6010101220AF0C9F800282D
:1021400018BF70BD40F6F815C2F2000528462146BA
:1021500012220AF04DF9B0BBE968284609F014FFD5
:10216000F8B940F6F81440F6C815C2F2000440F67B
:102170004611C2F20005C2F20001204680222B4621
:102180000AF02CFC41F62826C2F20006307013A19A
:10219000204601222B460AF021FC3070204609F02F
:1021A000BFFE40F64614C2F20004207858B14FF04A
:1021B000FF350026601946702046FEF7BDFBA91CBE
:1021C00001358142F6D340F6B601C0F60101002088
:1021D0000122BDE870400AF07BB800BF0A00000091
:1021E00042F64460C2F2000000F0C8BD42F68450DE
:1021F000C2F2000000F0C2BD42F6E450C2F200009C
:1022000000F0BCBD2DE9F0412DED048B8EB040F205
:102210007026C2F20006D6F8100296F8088296F8E8
:1022200009520DF061FD41EC180BD6F8240296F826
:1022300020720DF059FD41EC190BD6F8380296F8D2
:1022400030420DF051FD41EC100B40F64010C2F24F
:102250000000018842888088CDE90A120C9040F67F
:102260004610C2F200000CA142462B468DED080B31
:1022700006948DED049B02978DED008BFEF7A0F880
:1022800040F23C00C2F2000000680EB0BDEC048BCE
:10229000BDE8F041FFF746BF2425326868642C256D
:1022A000326868642C25662C25632C25662C2563F2
:1022B0002C25662C25642C25642C25640000000048
:1022C00070470000042000F051BF0000082000F01B
:1022D0004DBF000080B5402000F048FF8020BDE8E1
:1022E000804000F043BF0000EFF3108072B600BFE3
:1022F000FEE7000080B540F6EC13C2F200035A7A04
:10230000002A1CBF012080BD93F809C0864600202A
:1023100003F80C005A7A03EB8202C2F804E05A7AFE
:102320001A44107293F809C00CF101025A720CF1B0
:1023300030020A7042F63A72A1F80120C87080BDDE
:1023400080B501F003F840F27021C2F20001B1F84B
:102350000022C1F804025308FE2B07D891F80202AC
:102360008854B1F800020130A1F8000240F2E410F4
:1023700001F20221C2F200000122BDE8804004F017
:10238000CBB90000000000002DE9F04381B02DED35
:10239000068B8EB000F0DAFF40F27029C2F200091D
:1023A000D9F80412401A3328C0F0D780B9F80002D7
:1023B000002800F0D28040F27024C2F2000472A122
:1023C0002046FEF7A7FA002800F0BF8004F5027847
:1023D000054640464821FEF7F0FA04F5137004F56F
:1023E000127104F2462204F50F7304F50E7704F51A
:1023F0000D76CDE90A32CDE90C1004F50C7104F527
:102400000972CDE9086704F5087304F5047604F54C
:10241000037704F20A20CDE9042140F6620104F2B8
:10242000322C04F2312ECDE90007CDE9026304F22B
:102430000923C0F6010128464246CDF818E0CDF840
:102440001CC0FEF733F994F82002002804BF2D20A9
:1024500084F8200294F83002002804BF2D2084F86C
:10246000300294F84402002804BF2D2084F844026E
:1024700094F83C02002804BF2D2084F83C0294ED1F
:10248000849A19EE100A0DF02FFC9FED3B8B41EC66
:10249000100BB0EE481AF0EE681A0CF0CDFC9FED70
:1024A0003CAA89EE0A1AB0EE409AF0EE609ABDEEB0
:1024B000C10A10EE100A0DF0EDF89FED310B074642
:1024C00058EC106B0D4651EC190B324643460CF09C
:1024D0004BFF3A462B460CF08BFE94ED899A41EC6B
:1024E000100B19EE100A84ED860B0DF0FDFB41EC8C
:1024F000100BB0EE481AF0EE681A0CF09DFC89EE55
:102500000A1AB0EE408AF0EE608ABDEEC10A10EE03
:10251000100A0DF0BFF805460F4651EC180B324675
:1025200043460CF021FF2A463B460CF061FE41EC8D
:10253000100B40F24E11C2F2000194F80802097823
:1025400084ED8A0B084484F8080240F27020C2F23D
:10255000000040F20221FEF730FA40F2E41009F2E6
:102560000221C2F2000001220EB0BDEC068B01B0C8
:10257000BDE8F04304F0D0B800000000000059406E
:102580000000000000004E402447504747412C0007
:102590000000C84240F27023C2F2000340F2E4108F
:1025A0004FF0000C03F20221C2F200000122A3F856
:1025B00000C204F0B1B800007047000070B581B0EF
:1025C0000022009290F83C20012A03D10221084603
:1025D00001B070BD0E6801220A2E80F83C2009D39C
:1025E000B2B25200D0F800E012FA86F21E3A0EF1B2
:1025F0000C0305E0D0F800E006EB46020EF11003F4
:102600004FF0070C1D680CFA02F4A5431D608D689D
:102610001C6805FA02F222431A604968062905D8A7
:1026200001EB810105390EF1340309E00C2901EBBE
:10263000810187BF41390EF12C0323390EF130039C
:102640001F221C688A4024EA020242F2043C1A60FB
:10265000C4F2010CB2B21C6802FA01F1ACF541728D
:1026600021439645196005D0002180F83C100846AA
:1026700001B070BD1221112EC1F2000118BF8E42AF
:102680003AD1DCF800208E4222F48002CCF80020FF
:10269000DCF8002042F40002CCF80020E4D140F243
:1026A0009401C2F2000109684DF68362C4F21B3244
:1026B000A1FB0212910C01EB8101490000910099EC
:1026C0000029D1D000990139009100990029CBD07F
:1026D00000990139009100990029C5D0009901396C
:1026E000009100990029BFD000990139009100990B
:1026F0000029E7D1B8E700BF122EB5D1DCF80010F1
:1027000021F40001CCF80010DCF8001041F4800145
:10271000CCF80010A8E70000006842F20001C4F203
:102720000101884208BF04F075BB70477047000084
:102730007047000070B50446006806684568B10738
:1027400017D515F0200114D0216CC90603D4216CD3
:1027500041F400712164816811F0405F02D1217E53
:10276000002969D02046FFF7D7FF20686FF01201DB
:102770000160710714D515F0800111D0216CC906D4
:1027800003D4216C41F400512164816811F4401F8D
:1027900022D02046FFF710FF20686FF00C01016087
:1027A000F10706D015F040011CBF01685FEAC17156
:1027B00034D1B1060FD515F0806108BF70BD616CD2
:1027C0006FF0200541F00201616405602046FFF7CB
:1027D000AFFF2068056070BD816B11F4401F02D00F
:1027E00081684905D5D441684905D2D4816811F082
:1027F000405FCED1217E0029CBD1416821F08001FC
:102800004160206C20F480502064206CC005C0D44E
:10281000206C40F001002064BBE700BF206C40F456
:1028200080302064204600F0D1F820686FF001016C
:102830000160B106BFD4CEE7C16A11F4700F03D0B6
:10284000816849053FF58EAF416821F02001416064
:10285000206C20F480702064206CC0043FF582AFAF
:10286000206C40F0010020647CE70000002804BFD9
:102870000120704710B50446006C00283ED0206C43
:10288000C00645D4206C41F202118843023042F266
:1028900004312064C4F20101086820F4403008606B
:1028A0000A6894E809101A43D4F810E00A604168F5
:1028B000012321F4807141604168C0F6007341EA50
:1028C0000E214160416821F040714160416841EA58
:1028D0000C014160816821F400618160E1688268D7
:1028E00011438160A16A8268994222F0706282601D
:1028F000826813D122F0405119E000BF204600F059
:1029000067F80020606484F83C00206CC006B9D5EC
:102910000120002184F83C1010BD00BF11438160EC
:10292000816821F040518160E16A826811438160D1
:10293000816821F0020181608168227E94F8203054
:1029400041EA42018160416883B141F40061416024
:1029500041684EF2000221F460414160616ACFF6A5
:10296000FF72436802EB4131194301E021F4006139
:102970004160C16A40F2000C21F47001C162E26959
:102980006169CFF6F07CC36A0CEB02521A43C26253
:10299000826822F40072826094F83020836843EAEF
:1029A00042228260826822F480628260826842EA07
:1029B0008121816000206064216C012262F30101A9
:1029C0002164002184F83C1010BD00007047000015
:1029D00070B586B0044642F200002168C4F20100DE
:1029E000002681420596049602D006B070BD00BF55
:1029F00043F630010096C4F202014A6900F56840CE
:102A000042F480724A614A6902F480720092009A2C
:102A100000960A6842F004020A60096801F00401A5
:102A200000910099072101910321CDE9021601A926
:102A300000F0A8FB42F6845546F21040C2F20005B1
:102A4000C4F202004FF48061C5E9000605F11000F0
:102A50004FF400624FF400534FF4807C80E80E1076
:102A60002846C5E90266C5E9086600F067FA00284D
:102A700018BFFFF739FC122000210022A563AC63C8
:102A800000F0F8FC122000F0E5FC06B070BD00007C
:102A9000B0B582B004460020019094F83C000128B3
:102AA00002D1022002B0B0BD94460A46012021683E
:102AB00084F83C008868C00729D188684DF6836592
:102AC00040F00100886040F29400C2F2000000680B
:102AD000C4F21B35A0FB0505A80C00EB40000190DB
:102AE0000198A0B1019801380190019878B101983E
:102AF00001380190019850B1019801380190019876
:102B000028B101980138019001980028EAD188681D
:102B1000C00503D5886820F4807088608D68206CBB
:102B2000ED0709D140F010002064606C40F0010016
:102B30006064002002B0B0BD40F20175A84300F50A
:102B4000807020644868400504D5206C012565F339
:102B50000D302064256C0020ED044FF0000544BFCB
:102B6000656C25F00605656484F83C00A06B41F6B1
:102B7000E17542F26503C0F60005C0F60003C0E946
:102B80000F5342F25103C0F60003C3646FF02203F7
:102B90000B604B6842F2080543F080634B608B6822
:102BA000C4F2010543F480738B604C31634600F03E
:102BB00077FAD5F8FC122068C9060FD0A5F10801F4
:102BC0008842B6D1286810F0405FB2D1286840F042
:102BD00080402860002002B0B0BD00BF816811F0C5
:102BE000405FA6D1816841F080418160002002B041
:102BF000B0BD0000B0B5044690F83C00012804BF09
:102C00000220B0BD0120216884F83C0088680025BE
:102C100020F0010088608868C0074FF000001DD1D7
:102C2000886820F480708860A06B90F835100229C5
:102C300008D100F047F828B1216C41F0400121642F
:102C400001E000BF002021684A6822F080624A60EB
:102C5000216C41F2011291430131216484F83C500E
:102C6000B0BD0000002804BF0120704710B5044625
:102C7000407918B101206071002010BD0020207142
:102C8000204600F005F801206071002010BD000012
:102C900081B043F63001C4F202010068A1F503627D
:102CA000904201D001B0704700200090086840F4C5
:102CB00080500860086800F480500090009801B0CF
:102CC0007047000070B5866D044600F03FFB94F835
:102CD000351002292ED105462068216C026822F0A9
:102CE00016020260426922F08002426109B9A16CB9
:102CF00019B1016821F008010160016821F00101AA
:102D000001600068C00708D000F020FB401B0528C8
:102D100018D820680068C007F6D1E06D3F2101FA9D
:102D200000F0B060012084F835000020002184F814
:102D3000341070BD802060650120002184F83410BB
:102D400070BD00BF20206065032084F8350000219D
:102D500084F8341070BD000090F83510022909D1B4
:102D6000052180F835100068016821F0010101603B
:102D7000002070478021416501207047F0B581B087
:102D800004460020009040F29400C2F20000026865
:102D9000D4E9166048F2B51337680821C1F64E33FE
:102DA00081403942A2FB03250CD0226813685B07DF
:102DB00008D5136823F004031360B160616D41F01E
:102DC0000101616501218140394208D022685269C0
:102DD000120604D5B160616D41F002016165042104
:102DE0008140394208D022681268920704D5B16048
:102DF000616D41F00401616510218140394217D0B5
:102E000020680268120713D5B16002680168520396
:102E100008D4C90508D4016821F008010160216CBB
:102E200021B905E0080343D4216C09B12046884745
:102E3000E16D202000FA01F23A4245D02068036893
:102E4000DB0641D5B26094F835300268052B1FD1FE
:102E500022F016020260426922F080024261226C76
:102E60000AB9A26C1AB1026822F0080202603F207F
:102E70008840B060012084F83500216D00200029D1
:102E800084F8340058D02046884701B0F0BD00BF18
:102E90000168520310D4C90512D4016821F0100151
:102EA0000160012084F83500002084F8340007E038
:102EB000A16C0029BAD1BBE7080301D4616C00E022
:102EC000E16B09B120468847606DA8B3606DC0070B
:102ED0002ED0052084F835002068A90A026822F067
:102EE00001020260009A01328A4200921AD80268F6
:102EF000D20717D0009A01328A42009212D8026893
:102F0000D2070FD0009A01328A4200920AD8026892
:102F1000D20707D0009A01328A42009202D8026892
:102F2000D207DFD1012084F83500002084F8340076
:102F3000E16C09B12046884701B0F0BD2DE9F041B0
:102F4000044600F003FA002C4ED00546022084F817
:102F500035000020216884F83400086820F0010062
:102F600008600868C00708D000F0F0F9401B052889
:102F70006CD821680868C007F6D1086848F23F029B
:102F8000CFF21002D4E90135024004F10C0E9EE8A4
:102F9000C1511A432A4310433043384340EA0800E2
:102FA000626A40EA0C00042A40EA0E0320D1D4E908
:102FB0000A5E206B4EEA0302104308604869BEF1C6
:102FC000000F20F0030040EA050040F0040C15D08B
:102FD000B8F5005F42D0B8F1000F51D1022D52D0A8
:102FE000012D47D055B94EE00120BDE8F08100BF6A
:102FF0000B60486920F0070040EA020C6FF00F00F8
:103000004AF6AB2250FA81F0CAF6AA22A0FB0223AC
:103010001A0940F2D873C0F601039A5C40F2FF33FC
:103020005F284FF03F00C1F814C021EA030100FA05
:1030300002F088BF0431C4E916128860002301221F
:103040000020636584F83520BDE8F0810322202349
:103050000320636584F83520BDE8F081032DCDD8C9
:10306000012240230120DFE805F0030E030500BF25
:10307000E7E700BFAEF1C070B0FA80F0400904E0AD
:10308000032D04D3BAD1CEF300600028B6D00122BC
:1030900040230120636584F83520BDE8F0810000FD
:1030A00070B590F834C0BCF1010F46D04FF0010C60
:1030B00080F834C0D0F858E090F835C0BCF1010F6A
:1030C00038D14FF0020C80F835C04FF0000CC0F83A
:1030D00054C0D0F800C08468056CC06DDCF8006096
:1030E000402C26F48026CCF80060CCF804300B4647
:1030F00004BF13460A463F2101FA00F0CCF808301D
:10310000CCF80C20CEF80800DCF8000040F01600E7
:10311000CCF800002DB1DCF8000040F00800CCF83D
:103120000000DCF8000040F00100CCF800000020B6
:1031300070BD00BF002180F83410022070BD000077
:10314000B0B5044600F002F9054640F20000C2F2B4
:1031500000000078611C18BF044400BF00F0F6F8BE
:10316000401BA042FAD3B0BD03F05CBE43F614414D
:10317000C4F201010A68024214BF08607047FFF7F9
:10318000F3BF00002DE9F04F82B000F13E4241F262
:10319000000502F1FF77C4F2020507224FEAB726C5
:1031A000A84208BF0422042E38BF4FEAB7224FF0CE
:1031B000010A002400274FF00008009208E000BF39
:1031C000023708F10108202F04F1040400F0B48054
:1031D0000E680AFA08F916EA090FF1D0D1F804A02E
:1031E0000AF0030BABF10106012E17D80322866803
:1031F00002FA07FECA6826EA0E06BA403243826027
:103200004268CAF3001522EA090205FA08F54FEAF6
:10321000480C6FEA0E062A4342600BE00322BA40D4
:10322000D643BBF1030FBC4604D1BC464FF0030BA1
:1032300022E000BFC2688D68324005FA0CF52A43CF
:10324000BBF1020FC26017D16FF0030202EA58020D
:10325000024404F01C030F25D2F820E005FA03FA1B
:103260000D692EEA0A0E05FA03F343EA0E03136210
:10327000D1F804A00AF0030B02680BFA0CF33240F9
:103280001A431AF4403F4FF0010A026098D000221E
:1032900043F644030192C4F202031A6843F6004E57
:1032A00042F480421A601A68C4F2010E02F48042AD
:1032B0000192019A28F003024FF6084C7244CFF6AF
:1032C000FF7C52F80C3004F00C060F25B540AB43E0
:1032D000009D05FA06F6334342F80C30DEF808206C
:1032E0004B6842EA090643F60C4CDD0258BF22EA5D
:1032F0000906CEF80860C4F2010CDCF800209D023B
:1033000042EA090658BF22EA0906CCF80060DEF856
:1033100004209D0342EA090658BF22EA0906CEF8B6
:103320000460DEF80020DB0342EA090658BF22EA07
:103330000906CEF8006043E702B0BDE8F08F000058
:10334000002A08BF090481617047000043F2A850B9
:10335000C2F200000068704740F2000043F2A8513A
:10336000C2F20000C2F2000100780A68104408604E
:103370007047000080B543F60040C4F202000168C7
:1033800041F400710160016841F4806101600168ED
:1033900041F480710160032000F098F80F2000F0E4
:1033A00005F800F027F8002080BD000070B540F25D
:1033B0000006C2F2000640F294013278C2F2000127
:1033C0004FF47A730968B3FBF2F20446B1FBF2F1F1
:1033D000084602F035FA0F2C4FF0010508D838B92D
:1033E0004FF0FF3021460022002500F043F87460C2
:1033F000284670BD82B0002043F640010190C4F21F
:1034000002014A6842F480424A604A6802F48042FB
:103410000192019A0090086840F0805008600868A6
:1034200000F080500090009802B07047002848BF1C
:10343000704700F01F01012202FA01F14EF28012E2
:103440004009CEF2000242F82010BFF34F8FBFF3C5
:103450006F8F7047002848BF704700F01F0101229E
:1034600002FA01F14EF200124009CEF2000242F8D7
:103470002010704710B54EF60C5CCEF2000CDCF854
:103480000030C3F3022E8EF00704042C28BF04245E
:10349000BEF103034FF0FF3E0EFA04F438BF0023E1
:1034A000A14399400EFA03F39A4300F00F03043B43
:1034B0001143634409010C3300F16042B0F1FF3F56
:1034C000C8BF02F56443197010BD00004EF60C51E0
:1034D000CEF200010A684FF6FF031A4060F30A2299
:1034E00042F0806040F0FD70086070477047000057
:1034F000026800205162704710B5D0F800E0DEF895
:103500002400E9B3DEF82830B1F1010C00EB1343DD
:103510002DD00020002100BF0EEB8000D0F8044128
:1035200041F00100C0B2844503EB14431FD90EEBF8
:103530008000D0F8044141F00200C0B2844503EBA2
:10354000144314D90EEB8000D0F8044141F003007D
:10355000C0B2844503EB144309D90EEB8000D0F8C8
:1035600004410431C8B2844503EB1443D4D843EA80
:1035700002400EEB8C01C1F80401002010BD00BF19
:1035800040EA0240CEF82800002010BDD0F808051F
:1035900006F022BB01EBC102D0F8083500EB820037
:1035A000C26C184606F080BA01EBC102D0F80835AB
:1035B00000EB8200D0F88C22184606F0D1BA000049
:1035C000D0F8080506F00ABB10B50446080601F05D
:1035D0000F0000EBC00104EB810205D402F51F715E
:1035E000002382F87D3204E0012302F13C0182F8DD
:1035F0003D3094F8BC240870012A04BF022010BD9D
:103600002068012284F8BC2407F056FA002084F8D0
:10361000BC0410BDB0B54268044601F00F009042F2
:1036200084BF0120B0BD09060AD400EBC00104EB41
:10363000810202F51F71002382F87D3209E000BF8C
:1036400000EBC00104EB8102012302F13C0182F88E
:103650003D3094F8BC240025012A8D70087004BF09
:103660000220B0BD2068012284F8BC2407F0CEFC03
:10367000284684F8BC54B0BD10B5044690F8BC048C
:10368000012804BF022010BD206801220B0684F827
:10369000BC2405D407F0A4FE002084F8BC0410BDAF
:1036A00001F00F0107F0F8FE002084F8BC0410BD03
:1036B00001F00F0101EBC10100EB8100D0F89C0289
:1036C00070470000B0B50546080601F00F0000EB9A
:1036D000C00105EB810C05D40CF51F7100248CF89A
:1036E0007D4204E001240CF13C018CF83D404C7813
:1036F0000870002CCA600B7118BF0881022B04BF30
:103700000020487195F8BC04012804BF0220B0BD18
:103710002868012285F8BC2407F07EF8002085F88F
:10372000BC04B0BD80B501F00F0C0CEBCC0100EB7C
:10373000810ECEF894320023CEF89C328EF87D3282
:103740000369CEF88C22012B8EF87CC208BFCEF81C
:10375000902200680EF51F71DAB2BCF1000F03D0A1
:1037600007F0A4FC002080BD07F0A4FB002080BD72
:10377000B0B50446406801F00F05854284BF0120C2
:10378000B0BD08060AD401EBC10004EB800000F5CF
:103790001F71002280F87D2209E000BF05EBC50003
:1037A00004EB8000012200F13C0180F83D2094F8F8
:1037B000BC04012201288A700D7004BF0220B0BD34
:1037C000206884F8BC2407F049FC1DB1002084F86F
:1037D000BC04B0BD2068217C04F2C44207F0E8FBC1
:1037E000002084F8BC04B0BD10B501F00F0C0CEB48
:1037F000CC0100EB810E714601F83CCF8B610023B8
:103800000B62036901244C70012B0A6108BFCEF8DA
:1038100050200068DAB2BCF1000F03D007F046FC7C
:10382000002010BD07F046FB002010BD2DE9F04F31
:103830008BB005688246284607F09AFE10B10BB09F
:10384000BDE8F08FDAF8000007F0C0FE0028F6D0DF
:10385000D5F80808C0F30D21DAF80000CAF8FC1406
:1038600007F0B4FE0146DAF80000890703D5416984
:1038700001F00201416105F50061039107F0A6FE28
:103880000146DAF80000C90605953FD5816921F0A7
:10389000100181612C6AC4F34340062804F00F052F
:1038A0001CD002282BD147F6F070044027D005EB3E
:1038B000C5000AEB8005D5F88C120598220907F09F
:1038C00089FED5F88C02D5F89C1200EB1410C5F8CF
:1038D0008C0201EB1410C5F89C0210E005980AF266
:1038E000C441082207F076FE05EBC5000AEB800014
:1038F000D0F89C12C4F30A121144C0F89C12DAF8F2
:103900000000816941F010018161059D07F05EFEB4
:103910000003CDF828A040F10181DAF8000007F09B
:1039200033FE002800F0FA8006460AF2C4400AF589
:10393000277800274FF4306B0024099020E000BF67
:1039400005EB0B00022181605FEA8A6042BF05EB54
:103950000B00202181605FEA8A40DDF828A042BF89
:1039600005EB0B004FF4005181600134B7EB560FAB
:103970004FEA56060BF1200B08F1240800F0CE8028
:10398000F007F2D0DAF800005FFA84F9494607F050
:1039900015FE8246C00770D005EB0B000121816047
:1039A0000A9F38680BEB0001036C8A683F69012F9E
:1039B0002AD117073CD497065CD412F0280F4FF099
:1039C00000075AD143F20B07C4F65477BB4202D327
:1039D00012F400424AD158F8042C09696FF3DF4110
:1039E000A2EB01014FF00007C8F80010DCB90A9BF8
:1039F000D3F89422002A00F08B80D3F88C0208447C
:103A0000C3F88C020FE000BF43F20B07C4F65477F3
:103A1000FF37BB421CD1100428D490064FF000079A
:103A200044BF202088600A984946FFF7BDFD24E086
:103A300043F20B00C4F6547083424FF000071CD3CE
:103A400012F400401CBF4FF40040886015E000BF36
:103A50003CB90A99D1F8941219B9099A002107F0D2
:103A6000A7FA0A984946FFF79FFD05E04FF400408A
:103A700001E000BF2020886000275FEA0A7027D598
:103A800005EB0B00082181600A9843F20B020068E5
:103A9000C4F65472056C58448168571EBD4205D95E
:103AA00011F400411CBF4FF4004181600A9800F0FE
:103AB00089FCBD42059D4FF0000709D90A980069AD
:103AC000012805D10A98099A0068012107F070FAC7
:103AD0005FEACA6042BF05EB0B00102181605FEA1C
:103AE0008A707FF531AF6869000604D5039948688C
:103AF00040F48060486018F81D0C01287FF420AF66
:103B00000A98494608F81D7C00F04AFB18E700BFF8
:103B1000099A012107F04CFA85E700BFDAF80000A6
:103B200007F054FD039E400340F1E680DAF8000000
:103B300007F022FD002800F0DF8005F510610491F8
:103B40000AF2C4414FF0000B029114E0089F0BF001
:103B50000F02D7F83418012303FA02F29143C7F891
:103B6000341800BF00210BF1010BB1EB500F4FEAED
:103B7000500000F0C180C107F4D00690DAF80000D0
:103B80005FFA8BF1099107F007FD049F0446C00717
:103B900028D00BF00F00716B012202FA00F021EA2D
:103BA0000000706307EB4B108260DAF81000012808
:103BB00014D10BEBCB000AEB8000D0E91212BBF161
:103BC000000F1144C16409D1DAF8540030B9DAF8B1
:103BD0000000029A012107F0EBF900BF0999504655
:103BE000FFF7D8FC200742BF07EB4B10082181608C
:103BF000E00642BF07EB4B1010218160600642BF18
:103C000007EB4B1040218160A00715D52846594687
:103C100007F042FC0BEBCB000AEB800010F83F1FD3
:103C2000012905D1002101700999504600F0B4FA2C
:103C300007EB4B10022181602006069892D50BEB12
:103C4000CB010AEB8104A14659F8542FC84658F815
:103C5000087FBA42FFF486AFDAF8005054F8483FC4
:103C6000D11B994288BF1946089505EB4B1CDCF81F
:103C700018590331ADB2B5EB910F28BFBA4205D840
:103C8000059DBA423FF66EAF60E700BF04F1040A3B
:103C9000DAF800100CF51065079400BF0A98D41BE1
:103CA0009C42067C88BF1C46DDE90802A3B2009650
:103CB00007F0C8FDDAF80000E31C0119D8F800008D
:103CC000CAF800100719C8F80070AA6996B2D9F8A6
:103CD0000020B6EB930F28BFBA4203D907980368B8
:103CE000DCE700BFDDF828A0039EDDE90550BA42FD
:103CF0003FF638AF2AE700BFDAF8000007F066FCAD
:103D0000002821D4DAF8000007F060FC000538D460
:103D1000DAF8000007F05AFCC00442D570681021A0
:103D200020F001007060DAF8000007F0B5FBDAF867
:103D30000400002800F0F580411E032900F0030C68
:103D400032D200219CE000BF706820F0010070605A
:103D50009AF8F404012807D100208AF8F4045046A8
:103D60000021FFF7C3FB02E0504600F00FFBDAF83A
:103D70000000416901F00041416107F027FC0005A6
:103D8000C6D5B068C00702D0504600F043FBDAF851
:103D90000000416901F40061416107F017FCC004B3
:103DA000BCD4DAF80000EAE020F0030E05F5366333
:103DB0004FF6A0564FF6C0554FF6E0544FF6006050
:103DC00000214FF67F37CFF6FF76CFF6FF75CFF69F
:103DD000FF74CFF6FF7000BFA3F5187297609A5971
:103DE000043122F400129A5143F8587C53F8602CA5
:103DF0008E4522F4001243F8602C53F8602C42F0F8
:103E0000006243F8602CA3F5107297605A5922F4AF
:103E100000125A5143F8387C53F8402C22F4001217
:103E200043F8402C53F8402C42F0006243F8402CF9
:103E3000A3F5087297601A5922F400121A5143F838
:103E4000187C53F8202C22F4001243F8202C53F84D
:103E5000202C42F0006243F8202CA3F500729760FA
:103E60001A5822F400121A509F601A6822F40012A5
:103E70001A601A6842F000621A6003F18003ABD145
:103E8000059D039EBCF1000F4BD005F5106000EBC3
:103E900041124FF67F334F019360C65905F53062EA
:103EA00026F40016C65102EB4116B360D659BCF198
:103EB000010F26F40016D651D65946F00066D651A9
:103EC000039E2ED04F1C00EB47157E01AB60855939
:103ED00002EB471725F400158551BB609359BCF1DF
:103EE000020F23F400139351935943F0006393514D
:103EF000039E16D0023100EB41174FF67F364B017F
:103F0000BE60C75827F40017C75002EB4110866007
:103F1000039ED05820F40010D050D05840F00060DC
:103F2000D050F06940F00110F061DAF8300048B18B
:103F3000D6F8840040F00B00C6F8840006F1440077
:103F400007E000BF706942F22B010843706106F17F
:103F5000100001680AF2C44241F00B0101603068B0
:103F600020F4FE603060DAF800009AF8101007F0D4
:103F70001FF8DAF80000416901F48051416107F04F
:103F800025FB0146DAF8000089041AD506F090FCFA
:103F9000DAF8000007F0DEFADAF80040CAF80C00A0
:103FA00000F002FB9AF80C200146204607F0BAFB0D
:103FB000504600F0D9F9DAF80000416901F40051E7
:103FC000416107F003FB000706D4DAF8000007F0B0
:103FD000FDFA00060DD435E0504600F0DBF9DAF8C2
:103FE0000000416901F00801416107F0EFFA0006A5
:103FF00028D50599886920F080008861DAF80400E6
:1040000002281FD30AF2A324012504E001358542CA
:1040100004F1240416D221780129F7D105F00F000C
:1040200000EBC0000AEB80022806DAF8000002F17B
:104030003C0158BF02F51F7107F040F9DAF804009F
:10404000E4E700BFDAF8000007F0C0FAC00251D47C
:10405000DAF8000007F0BAFA800240F18080DAF85E
:10406000040002282CD305990AF5297201F5326162
:104070000123012706E000BF01372031874202F10A
:1040800024021DD20E68B6F1FF3FF5DC1578012D34
:10409000F2D1DAF8FC5406F4803605F00105AE42A0
:1040A000EAD1059D02F8013CAE6946F08006AE619A
:1040B0006E693606E0D40399486840F400704860A1
:1040C000DAF80000416901F40011416107F07EFA5D
:1040D00040004AD55046FFF759FADAF80000416926
:1040E00001F08041416107F071FA400744D4FFF7C5
:1040F000A6BB00BFDAF80400022825D305990AF10F
:10410000640501F512640126012705E0013720341A
:10411000874205F1240517D22168B1F1FF3FF5DC94
:1041200029780129F2D107F00F0000EBC0000AEB5B
:104130008001DAF800003C3105F8016C07F0BEF8A8
:10414000DAF80400E2E700BFDAF80000416901F4A0
:104150008011416107F03AFA80023FF580AFDAF84A
:10416000000007F033FA4000B4D4DAF8000007F09A
:104170002DFA40077FF563ABDAF800004468610769
:1041800004D55046FFF71CFADAF8000041682143D5
:1041900041600BB0BDE8F08FD0F8080505F08CBD8C
:1041A000D0F8080505F09CBD2DE9F04F8BB0002834
:1041B00000F086800446056890F8BD0428B9002008
:1041C00084F8BC04204600F08FF8032084F8BD0476
:1041D000E86BC0055CBF00202061206806F062FE2D
:1041E000206804F11C0A0A90D4E90C5004F1040E72
:1041F0009AE8C0079EE80E58CDE9085003A880E869
:10420000C0030A988DE80058CDF81CA006F060FBAA
:10421000002852D120680021002507F03BFA616890
:1042200061B301200023002203EBC30304EB8307E7
:1042300087F83C20D3B20132A7F84430D3B2994278
:1042400087F83D0087F84050C7E912557D65EBD8E7
:1042500000200023002200BF03EBC30304EB83070D
:1042600087F87C220132D3B2994287F87D0287F821
:104270008002C7E9A200C7F89402EDD8A0682268BE
:104280000A90D4E90C5004F1140E04F1240AD4E984
:1042900003379EE840589AE80007CDE9085002A885
:1042A00080E8005810460A9ACDE90076CDE90589E4
:1042B000CDF81CA006F06AFC40B1022084F8BD04D1
:1042C000012528460BB0BDE8F08F00BF0025012076
:1042D00084F8385084F8BD04206806F047FC28466E
:1042E0000BB0BDE8F08F0000B0B586B00068B0F14B
:1042F000A04F01D006B0B0BD002543F630040195B3
:10430000C4F20204206801A940F001002060206886
:1043100000F00100019001984FF4C050019002207C
:10432000CDE90205032004900A2005900020C4F284
:104330000200FEF727FF6068002140F08000606007
:1043400000956069002240F480406061606900F47B
:104350008040009000984320FFF78CF84320FFF73F
:1043600079F806B0B0BD000010B50446C068022858
:1043700018BFFDF7B9FFD4F80805012105F038FD95
:10438000D4F80805BDE8104005F0E6BCD0F80805F3
:1043900005F016BDD0F8080505F01CBD10B50446A3
:1043A00090F8BC04012804BF022010BD012084F84D
:1043B000BC0484F83810206807F0A2F9002084F8C3
:1043C000BC0410BDD0F8082500F2C441104605F029
:1043D00025BD000010B5044690F8BC04012804BFB8
:1043E000022010BDA16A20680122012984F8BC24A2
:1043F00006D1A169012903D0816B41F48031816329
:1044000006F0E6FF206806F0A1FB002084F8BC045B
:1044100010BD000010B50446D0F8080505F054FDA5
:104420002068D0F8001E41F00101C0F8001E206A8B
:10443000002808BF10BD4EF61050CEF200000168F3
:1044400041F00601016010BD2DE9F041002800F0A7
:104450008B8043F60808C4F202080446D8F8F80333
:104460000D4600F00700884207D288F8F853D8F8C4
:10447000F80300F00700A84276D12068810717D51D
:10448000410705D5D8F8001041F4E051C8F80010F4
:10449000010705D5D8F8001041F46041C8F80010B4
:1044A000D8F80010A26821F0F0011143C8F80010FC
:1044B000C0073FD1D8F8F80300F00700A84207D999
:1044C00088F8F853D8F8F80300F00700A8424BD159
:1044D0002068410707D5D8F80010E26821F4E051C0
:1044E0001143C8F80010000708D5D8F8000021696A
:1044F00020F4604040EAC100C8F8000000F082F8F3
:10450000D8F800104FF69C72C1F30311C0F60002F8
:10451000515C40F2940220FA01F140F20400C2F230
:1045200000000068C2F200021160FEF73FFF0020A9
:10453000BDE8F0816068811E022907D258F8081C86
:1045400089015CBF0120BDE8F08111E0012807D19D
:1045500058F8081C89035CBF0120BDE8F08107E022
:1045600058F8081C890703D40120BDE8F08100BF7A
:10457000D8F8001021F003010843C8F80000FEF746
:10458000E5FE064641F28837D8F80000616800F081
:104590000C00B0EB810F8DD0FEF7D8FE801BB84227
:1045A000F2D90320BDE8F08140F29400C2F200008D
:1045B0000068704740F2940043F60801C2F2000020
:1045C000C4F20201006809684FF6AC72C1F382219F
:1045D000C0F60002515CC8407047000040F29400F1
:1045E00043F60801C2F20000C4F202010068096843
:1045F0004FF6AC72C1F34231C0F60002515CC840C4
:104600007047000010B543F60404C4F20204606869
:1046100000F00C0142F200400829C0F2F40007D07B
:10462000042918BF10BD41F20020C0F27A0010BD6D
:10463000216801F03F02216823684902C3F3881111
:1046400006D4A1FB00010023FBF742FE07E000BFF8
:1046500041F20020C0F27A004843B0FBF2F021683A
:104660000222C1F3014102EB4101B0FBF1F010BDA8
:104670002DE9F04182B000286AD00446007843F664
:104680000006C007C4F202060BD0B06800F00C00B0
:10469000042840F0A1803068800302D560680028BB
:1046A00056D0207880071AD5B06810F00C0F09D0CA
:1046B000B06800F00C00082840F0A8807068400244
:1046C00000F1A4803068800702D5E06801283FD15E
:1046D0003068216920F0F80040EAC100306020789D
:1046E000000739D4207840074ED4A5695DB3B0687F
:1046F00000F00C00082840F0BD80012D28D0706823
:10470000E16900F480028A4222D1216A00F03F026E
:104710008A421DD147F6C071626A0140B1EB821F27
:1047200016D1A26A0023CFF6FF7303EBC23200F466
:1047300040316FF30F0291420AD1E16A00F07060DC
:10474000B0EB016F04D1002002B0BDE8F08100BFE2
:10475000012002B0BDE8F0816069002840F200004D
:10476000C4F2472076D00121C0F8801EFEF7EEFD8E
:10477000054600BF706F8007B4D4FEF7E7FD401B0D
:104780000228F7D9DDE000BF306C10F080580AD164
:1047900000200190306C40F080503064306C00F0AC
:1047A00080500190019847F20007C4F20007386872
:1047B000C00541D4386840F480703860FEF7C6FD0B
:1047C000054600BF3868C00536D4FEF7BFFD401B64
:1047D0000228F7D9B5E000BFB06800F00C00082847
:1047E00003D1706840023FF556AF6068B0F5803F76
:1047F00007D0B0F5A02F40F08D80306840F48020C5
:104800003060306840F4803030608DE0E06800282F
:1048100052D00020C4F2472001210160FEF796FD2E
:10482000054600BF306880073FF552AFFEF78EFDAA
:10483000401B0228F6D984E0A068012805D005288D
:104840004ED1306F40F004003067306F40F001000F
:1048500030674FE00021C0F8801EFEF777FD054667
:10486000706F80077FF53EAFFEF770FD401B02289A
:10487000F6D966E00027C4F2472700203866FEF725
:1048800065FD022D05460BD1306880015ED5FEF72F
:104890005DFD401B02284FF00300F5D954E700BF2F
:1048A000306880017FF54FAFFEF750FD401B0228B6
:1048B0004FF00300F4D947E70020C4F2472000215D
:1048C0000160FEF743FD0546306880077FF507AFBE
:1048D000FEF73CFD401B02284FF00300F4D933E7FC
:1048E000316F002821F001013167316F21F004019F
:1048F00031674DD0FEF72AFD054641F2883700BFEB
:10490000306F800756D4FEF721FD401BB842F7D91F
:1049100017E000BF3168002821F480313160316830
:1049200021F4802131604FD0FEF710FD054600BF15
:10493000306880033FF5B5AEFEF708FD401B6428E4
:10494000F6D9032002B0BDE8F08100BF04F11C05D8
:104950002FCD08430021CFF6FF7140EA821001EB12
:10496000C3316FF30F0140EA056008437060012016
:104970003866FEF7EBFC0446306880013FF5E3AE95
:10498000FEF7E4FC001B02284FF00300F4D9DBE63D
:10499000FEF7DCFC054641F2883700BF306F800728
:1049A00008D5FEF7D3FC401BB8424FF00300F5D901
:1049B000CAE600BFB8F1000F7FF497AE306C20F06C
:1049C0008050306491E600BFFEF7C0FC054600BF92
:1049D000306880037FF565AEFEF7B8FC401B6428A5
:1049E0004FF00300F4D9AFE680B5D0E9193ED0F816
:1049F00044C09A0F0A70C3F383624A70C3F3016222
:104A00008A701A0CCA701A0A0A714FEA1E524B7148
:104A1000CA80CEF303420A72CEF3C0324A72CEF39A
:104A200080328A72CEF34032CA72CEF300320A73F9
:104A30000022BCF1010F4A7336D0BCF1000F40F0E8
:104A4000878040F6FC72C36E02EA8E0242EA9372DD
:104A50000A61C26EC2F3C2630B75C2F302634B7587
:104A6000C2F342538B75C2F38243CB75C2F3C23398
:104A70000B76D1F810C00B7E0CF1010C03F007038C
:104A800002330CFA03FCC0F854C00B7A03F00F0E8B
:104A9000012303FA0EF383655B0A03FB0CF3C36582
:104AA0004FF4007312E000BFB0F86E200EF03F0329
:104AB00042EA03420A610A694FF4806303EB8222EF
:104AC0004FF40073C0E91523C265C26E0366C2F3DA
:104AD00080334B76C2F3C61302F07F028B76CA7620
:104AE000006FC20F0A77C0F341724A77C0F3826247
:104AF0008A77C0F38352CA77C0F3405281F82020EE
:104B00000022C0F3004381F8212081F82230C0F355
:104B1000C03381F82330C0F3803381F82430C0F3F0
:104B2000403381F82530C0F3003381F82630C0F3DC
:104B3000812381F82730C0F30123C0B2400881F8F7
:104B4000283081F82900012081F82A00104680BD14
:104B5000016840F2FF52C0F240028A63816B012279
:104B600041F08051816380F83420104680BD000000
:104B700080B500F1440E9EE80C5081E80C10426DA7
:104B8000C1E903E2D0E91623C1E90523026E002042
:104B9000CA6180BD10B5016D04460068090403F0C8
:104BA000A5FA28B1A16B0843A063002010BD00BF87
:104BB0002068002103F0C6F8C0F3432010BD0000B8
:104BC00010B5D8B1044690F8340020B90020207701
:104BD000204600F02DF9032084F83400204600F030
:104BE0000FF800284FF0010018BF10BD0021A1638D
:104BF000216384F83400002010BD00BF012010BDE7
:104C0000F0B58FB00446006876210026029100219D
:104C1000002200230096019603F098F84FF001055A
:104C200010B128460FB0F0BD48F2A007C4F2252706
:104C30003E60206803F0A0F802203D60FEF780FA95
:104C40000496206803F00AF940B1012584F8345035
:104C5000A16B0843A06328460FB0F0BD206803F0A5
:104C60002DF968B120680021A16403F0F7F800284D
:104C7000EBD1A06C04F14406012805D00CE000BF84
:104C80000120A06404F144062068002103F084F8A8
:104C900010B14FF08050D8E704994FF6FE70814272
:104CA00026D80025CCF210154FF6FF77206800219A
:104CB00003F072F80028C8D12068294603F078F87C
:104CC0000028E6D12068002103F03CF80499002870
:104CD00001F101010491049901D4B942E6D3049988
:104CE0004FF6FE72914206D8400007D5012006E03B
:104CF0000499814202D94FF08070A6E7002030600D
:104D000020680125ADF80E5003F018F890B1606CE2
:104D1000032813D12068042103F014F8000DE06487
:104D200004A92046FFF760FE002855D04FF08050C0
:104D30008CE700BF4FF0806088E700BF206803F079
:104D400035F900287FF482AF2068002102F0FAFFD5
:104D5000216860670846042102F0F4FF2168A0671B
:104D60000846082102F0EEFF2168E06708460C21A2
:104D700002F0E8FF616CC4F880000329CAD0206803
:104D80000DF10E0103F0BEF900287FF45FAF606CF7
:104D90000328BFD0BDF80E1020682165090403F078
:104DA00055F900287FF452AF2068002102F0CAFFB5
:104DB000216860660846042102F0C4FF2168A066ED
:104DC0000846082102F0BEFF2168E06608460C2173
:104DD00002F0B8FF20679DE7216D20680A040023D8
:104DE00003F0D8F800287FF431AF94E88F00D4E9BD
:104DF0000565CDE90076029502F0A8FF20684FF422
:104E0000007103F01FF878B1216840F2FF52C0F240
:104E100040028A63A16B01250843A06384F83450E3
:104E200028460FB0F0BD00BF002528460FB0F0BDEA
:104E30002DE9F04786B040F60004C4F20204006891
:104E4000A4F55C41884203D006B0BDE8F08700BFFE
:104E50004FF0000943F63000CDF80490C4F2020090
:104E6000416901AD41F40061416141694FF0020ABD
:104E700001F4006101910199CDF8049001684FF0AF
:104E8000010841F0040101600168032601F00401FA
:104E900001910199CDF8049001680C2741F00801B7
:104EA00001600068294600F00800019001984FF465
:104EB000807001902046CDF808A0CDF80C800496B3
:104EC0000597FEF75FF94FF48050CDE9010A2046BF
:104ED0002946CDE903960597FEF754F90420CDE95C
:104EE000010A04F580602946CDE903860597FEF79F
:104EF00049F906B0BDE8F0872DE9F04786B01F46B6
:104F000016460D460446FEF721FA9DB1804694F8F8
:104F10003400012816D10021A163E06DBA19824244
:104F200018D9A06B40F00070A063012006B0BDE866
:104F3000F08700BFA06B40F00060A063012006B0C6
:104F4000BDE8F087A06B40F00050A063012006B0E0
:104F5000BDE8F087032084F83400626C2068012AE1
:104F60004FF0FF32C16218BF760200927A024FF012
:104F7000020901929022CDE903914FF0010A69469E
:104F80000292CDF814A002F0C5FE022F18D3C4F887
:104F900030902068314602F0E5FFC8B1216840F248
:104FA000FF52C0F240028A63A16B0843A063012054
:104FB000002184F83400216306B0BDE8F08700BF0B
:104FC000C4F830A02068314602F0D8FF0028E5D1AF
:104FD000DDF83890019E40F22A3A05E0FEF7B6F976
:104FE000A0EB0800484543D22068426B416B12EAAF
:104FF0000A0F27D1002E18BF11F40041EED002F0A5
:10500000C1FE2860206802F0BDFE6860206802F0E2
:10501000B9FEA860206802F0B5FEE860206802F0E2
:10502000B1FE2861206802F0ADFE6861206802F0E0
:10503000A9FEA861206802F0A5FEE8612035203EA7
:10504000CCE700BF022F27D311F4807124D0616C0C
:10505000032921D003F0C2F801462068E1B140F2F3
:10506000FF52C0F240028263A06B08439EE700BF7C
:10507000206840F2FF51C0F240018163A06B40F014
:105080000040A063012084F8340000202063032046
:1050900006B0BDE8F08700BF416B090716D4416B2D
:1050A00089071DD4416B890624D4416B002E18BF9B
:1050B00011F4001128D140F23A518163012084F8A3
:1050C0003400002006B0BDE8F08700BF40F2FF5179
:1050D000C0F240018163A06B40F0080066E700BFAA
:1050E00040F2FF51C0F240018163A06B40F002002A
:1050F0005CE700BF40F2FF51C0F240018163A06B4A
:1051000040F0200052E700BF043E02F03BFE286062
:10511000FEF71CF9A0EB080048450BD22068002ED2
:10512000416BC8D011F40011A6F1040605F1040585
:10513000EBD1C0E7206840F2FF51C0F2400181632B
:10514000A06B40F0004031E72DE9F04F87B0984662
:1051500015460E460446FEF7F9F89EB1824694F8CD
:105160003400012816D10021A163E06D08EB05028F
:10517000824217D9A06B40F00070A063012007B0F5
:10518000BDE8F08FA06B40F00060A063012007B085
:10519000BDE8F08FA06B40F00050A063012007B085
:1051A000BDE8F08F032084F83400626C2068012A87
:1051B0004FF0FF32C16218BF6D0201924FEA4822E0
:1051C00002929022CDE9032105910121069101A9C6
:1051D00002F0A0FDB8F1020F18D320202063206850
:1051E000294603F00BF8C8B1216840F2FF52C0F223
:1051F00040028A63A16B0843A0630120002184F868
:105200003400216307B0BDE8F08F00BF1020206399
:105210002068294602F0FEFF0028E5D1DDF8409025
:10522000029F40F21A3B6D4606E000BFFEF78EF883
:10523000A0EB0A0048455FD22068426B416B12EA3E
:105240000B0F43D1002F18BF11F48041EED03178FD
:105250000091727841EA02210091B27841EA02415C
:105260000091F27841EA02610091294602F08EFD38
:10527000716820680091294602F088FDB1682068B5
:105280000091294602F082FDF168206800912946CC
:1052900002F07CFD316920680091294602F076FD1C
:1052A000716920680091294602F070FDB16920689B
:1052B0000091294602F06AFDF069294600902068B5
:1052C000203602F063FD203FB0E700BFB8F1020FC7
:1052D00024D311F4807121D0616C03291ED002F017
:1052E0007DFF01462068C9B140F2FF52C0F2400282
:1052F0008263A06B08437FE7206840F2FF51C0F251
:1053000040018163A06BA063012084F83400002079
:105310002063032007B0BDE8F08F00BF416B090791
:1053200010D4416B890717D4416BC9061ED440F2D3
:105330003A518163012084F83400002007B0BDE8B1
:10534000F08F00BF40F2FF51C0F240018163A06BBB
:1053500040F0080050E700BF40F2FF51C0F24001AA
:105360008163A06B40F0020046E700BF40F2FF51AE
:10537000C0F240018163A06B40F010003CE70000E8
:105380007047000070B558B1D0F824C00446BCF195
:10539000000F07D00021216104F1140108E000BFD3
:1053A000012070BD6168B1F5827F03D004F11C015A
:1053B00000220A600025A56294F851104FF0000EFB
:1053C00041B9204684F8505000F040F8D4E909C1B2
:1053D00001F4005E022284F85120D4E90023D4E9CC
:1053E0000201166803F4827326F04006166000F48A
:1053F00004401844236901F40061084403F00201E9
:105400006369084403F00101A369E669084403F4F1
:105410000071084406F03801266A084406F080014D
:10542000084340EA0E001060042000EA13400CF02C
:10543000100108445060D06920F40060D061012060
:10544000656584F85100284670BD000070B586B0CF
:105450000446016843F20000C4F20100814201D019
:1054600006B070BD002643F630010196C4F2020179
:105470004A6900F5504042F480524A614A6902F498
:1054800080520192019A01960A6842F001020A6074
:10549000096801F0010101910199A0210191022106
:1054A000CDE90216032104910521059101A9FDF71B
:1054B00069FE42F6E45546F24040C2F20005C4F2ED
:1054C00002004FF0806140224FF4806385E847007E
:1054D0002846C5E90436C5E90666C5E90866FDF74C
:1054E0002DFD002818BFFCF7FFFEA564AC6306B0D5
:1054F00070BD00002DE9F04383B0044690F85000E1
:10550000012803D1022003B0BDE8F0834FF0010968
:105510001D4616460F4684F85090FDF717FF94F885
:105520005110012972D18046002F4FF0010018BFA1
:10553000002E00F0D6800320002184F85100616520
:105540002763A686E686A163A187E187A068216418
:10555000B0F5004F2068616407D1016821F0400177
:105560000160016841F4804101600168490603D48B
:10557000016841F0400101606168731EE268B1FAA0
:1055800081F1B3FA83F349095B09B2F5006F41EA8F
:1055900003013DD131B137F8021BC1602763E18EB1
:1055A0000139E186E18E00296CD0691C1BD000BF57
:1055B0008168890706D4FDF7C9FEA0EB0800A84260
:1055C00008D3C1E0216B31F8022BC2602163E08E69
:1055D0000138E086E08E002854D020688168890771
:1055E000E9D5EFE720688168890703D4FDF7AEFEAF
:1055F00008E000BF216B31F8022BC2602163E08E0E
:105600000138E086E08E0028ECD13BE0022068E023
:1056100039B139780173206B01302063E08E013895
:10562000E086E08E70B3681C0BD11BE0216B09781B
:105630000173206B01302063E08E0138E086E08E3C
:1056400000B3206881688907F0D4FDF77FFEA0EBE6
:105650000800A842F3D3032043E000BFFDF776FE25
:10566000E08E78B1206881688907F7D5216B0978C9
:105670000173206B01302063E08E0138E086E08EFC
:105680000028EFD140F29400C2F20000006849F611
:105690008171C1F25E61A0FB0101480D4FF47A7186
:1056A000484302906068B0F5827F23D12046802174
:1056B0002A46434602F082FF28B1606D40F0200088
:1056C000606520206065A06838B9002001902068DE
:1056D000C1680191806801900198606D002818BF31
:1056E0000120002184F8519084F8501003B0BDE8E7
:1056F000F08300BF02980028E5D00298013802909C
:10570000206880680006DED502980028DBD0029869
:1057100001380290206880680006D4D502980028DD
:10572000D1D0029801380290206880680006CAD55E
:1057300002980028C7D0029801380290206880683B
:105740000006D7D4BFE700BF0320CAE710B5044660
:1057500090F85000012804BF022010BD012084F8F9
:10576000500094F8510001280AD100294FF001009F
:1057700018BF002A0AD1002184F8501010BD00BFC4
:105780000220002184F8501010BD00BF03204FF00C
:10579000000E84F85100C4F854E02163A286E2862A
:1057A000C4F838E0C4E910EEA4F83CE0A4F83EE008
:1057B000A0682268B0F5004F07D1106820F04000C3
:1057C0001060106840F480401060A06C48F2C14C3A
:1057D00048F2C943C0F6000CC0F60003C0E90F3C14
:1057E00048F2A143C0F60003C0E9133EE38E0C3239
:1057F000FDF756FC50B1606D40F01000606501206F
:1058000084F85100002184F8501010BD2068016810
:10581000490603D4016841F040010160416841F04C
:1058200020014160416841F00201416000200021F7
:1058300084F8501010BD0000704700007047000051
:10584000411E0020B0EB116F1CBF012070474EF2CB
:105850001002CEF2000251604EF62351CEF200014A
:10586000F0230B70072190601160704770470000B3
:105870007047000010B590F83C20012A4FF002025A
:105880003ED080F83D200268D2F804E0D2F808C08B
:105890000C682EF07003234340F6FF34C4F200047A
:1058A000A242536010DCB2F1804F1ED040F20043A0
:1058B000C4F200039A4218D040F60003C4F2000379
:1058C0009A4212D016E000BF40F60043C4F2000333
:1058D0009A420AD044F20003C4F201039A4204D06F
:1058E0000023C4F201039A4204D149682CF08003DA
:1058F000194391600121002280F83D1080F83C207E
:10590000104610BD002804BF0120704710B50446A2
:1059100090F83D0028B9002084F83C00204600F0B3
:105920008FF8022084F83D00206840F2FF7302687F
:10593000C4F2000340F2000C9842C4F2010C1DDDD9
:1059400040F60001C4F20001884220D060451ED01C
:1059500040F60041C4F20001884218D04FF6FF71B2
:10596000C4F2000188421CDC984225DCB0F1804F73
:105970003AD040F20041C4F2000133E0B0F1804F70
:1059800005D040F20041C4F200018842E6D1A1688E
:1059900022F070020A434FF6FF71C4F20001884200
:1059A000E2DD44F2FF31C4F20101884210DC6045BF
:1059B0001AD044F2000113E040F60001C4F20001E5
:1059C000884211D040F60041C4F200010AE000BF55
:1059D00044F60001C4F20101884205D044F20041BE
:1059E000C4F20101884203D1216922F440720A43C2
:1059F000A36922F08001D4F804E0E268194360450D
:105A00000160C262C0F828E002D16169CCF83010B0
:105A100001214161002084F8461084F83E1084F88A
:105A20003F1084F8401084F8411084F8421084F844
:105A3000431084F8441084F8451084F83D1010BDDC
:105A400080B584B0006844F60001C4F201018842C8
:105A500020D044F20041C4F20101884234D040F227
:105A60000041C4F20001884211D10020039043F6A6
:105A70004400C4F2020050F8041C41F0020140F856
:105A8000041C50F8040C00F002000390039804B0CA
:105A900080BD00BF0020019043F64400C4F2020024
:105AA0000168002241F4802101600068002100F4B7
:105AB0008020019001981A20FDF7DCFC1A2004B028
:105AC000BDE88040FDF7C6BC0020029043F64400CC
:105AD000C4F202000168002241F400310160006854
